{
  "_format": "hh-sol-artifact-1",
  "contractName": "Voting",
  "sourceName": "contracts/Voting.sol",
  "abi": [
    {
      "inputs": [
        {
          "internalType": "string",
          "name": "_eventName",
          "type": "string"
        }
      ],
      "stateMutability": "nonpayable",
      "type": "constructor"
    },
    {
      "anonymous": false,
      "inputs": [
        {
          "indexed": false,
          "internalType": "string",
          "name": "message",
          "type": "string"
        }
      ],
      "name": "Success",
      "type": "event"
    },
    {
      "inputs": [
        {
          "internalType": "address",
          "name": "_candidateAddress",
          "type": "address"
        }
      ],
      "name": "Vote",
      "outputs": [],
      "stateMutability": "nonpayable",
      "type": "function"
    },
    {
      "inputs": [],
      "name": "admin",
      "outputs": [
        {
          "internalType": "address",
          "name": "",
          "type": "address"
        }
      ],
      "stateMutability": "view",
      "type": "function"
    },
    {
      "inputs": [
        {
          "internalType": "uint256",
          "name": "",
          "type": "uint256"
        }
      ],
      "name": "candidateList",
      "outputs": [
        {
          "internalType": "string",
          "name": "name",
          "type": "string"
        },
        {
          "internalType": "uint256",
          "name": "age",
          "type": "uint256"
        },
        {
          "internalType": "bool",
          "name": "registered",
          "type": "bool"
        },
        {
          "internalType": "address",
          "name": "candidateAddress",
          "type": "address"
        },
        {
          "internalType": "uint256",
          "name": "votes",
          "type": "uint256"
        }
      ],
      "stateMutability": "view",
      "type": "function"
    },
    {
      "inputs": [
        {
          "internalType": "address",
          "name": "",
          "type": "address"
        }
      ],
      "name": "candidates",
      "outputs": [
        {
          "internalType": "uint256",
          "name": "",
          "type": "uint256"
        }
      ],
      "stateMutability": "view",
      "type": "function"
    },
    {
      "inputs": [],
      "name": "eventName",
      "outputs": [
        {
          "internalType": "string",
          "name": "",
          "type": "string"
        }
      ],
      "stateMutability": "view",
      "type": "function"
    },
    {
      "inputs": [],
      "name": "getAllCandidate",
      "outputs": [
        {
          "components": [
            {
              "internalType": "string",
              "name": "name",
              "type": "string"
            },
            {
              "internalType": "uint256",
              "name": "age",
              "type": "uint256"
            },
            {
              "internalType": "bool",
              "name": "registered",
              "type": "bool"
            },
            {
              "internalType": "address",
              "name": "candidateAddress",
              "type": "address"
            },
            {
              "internalType": "uint256",
              "name": "votes",
              "type": "uint256"
            }
          ],
          "internalType": "struct Voting.Candidate[]",
          "name": "list",
          "type": "tuple[]"
        }
      ],
      "stateMutability": "view",
      "type": "function"
    },
    {
      "inputs": [],
      "name": "getWinner",
      "outputs": [
        {
          "components": [
            {
              "internalType": "string",
              "name": "name",
              "type": "string"
            },
            {
              "internalType": "uint256",
              "name": "age",
              "type": "uint256"
            },
            {
              "internalType": "bool",
              "name": "registered",
              "type": "bool"
            },
            {
              "internalType": "address",
              "name": "candidateAddress",
              "type": "address"
            },
            {
              "internalType": "uint256",
              "name": "votes",
              "type": "uint256"
            }
          ],
          "internalType": "struct Voting.Candidate",
          "name": "candidate",
          "type": "tuple"
        }
      ],
      "stateMutability": "view",
      "type": "function"
    },
    {
      "inputs": [
        {
          "internalType": "string",
          "name": "_name",
          "type": "string"
        },
        {
          "internalType": "uint256",
          "name": "_age",
          "type": "uint256"
        },
        {
          "internalType": "address",
          "name": "_candidateAddress",
          "type": "address"
        }
      ],
      "name": "registerCandidates",
      "outputs": [],
      "stateMutability": "nonpayable",
      "type": "function"
    },
    {
      "inputs": [],
      "name": "startVoting",
      "outputs": [],
      "stateMutability": "nonpayable",
      "type": "function"
    },
    {
      "inputs": [],
      "name": "stopVoting",
      "outputs": [],
      "stateMutability": "nonpayable",
      "type": "function"
    },
    {
      "inputs": [],
      "name": "totalVote",
      "outputs": [
        {
          "internalType": "uint256",
          "name": "",
          "type": "uint256"
        }
      ],
      "stateMutability": "view",
      "type": "function"
    },
    {
      "inputs": [
        {
          "internalType": "address",
          "name": "",
          "type": "address"
        }
      ],
      "name": "voterList",
      "outputs": [
        {
          "internalType": "bool",
          "name": "registered",
          "type": "bool"
        },
        {
          "internalType": "bool",
          "name": "voted",
          "type": "bool"
        }
      ],
      "stateMutability": "view",
      "type": "function"
    },
    {
      "inputs": [],
      "name": "votingStatus",
      "outputs": [
        {
          "internalType": "bool",
          "name": "",
          "type": "bool"
        }
      ],
      "stateMutability": "view",
      "type": "function"
    },
    {
      "inputs": [
        {
          "internalType": "address",
          "name": "_voterAddress",
          "type": "address"
        }
      ],
      "name": "whiteListAddress",
      "outputs": [],
      "stateMutability": "nonpayable",
      "type": "function"
    },
    {
      "inputs": [],
      "name": "winnerAddress",
      "outputs": [
        {
          "internalType": "address",
          "name": "",
          "type": "address"
        }
      ],
      "stateMutability": "view",
      "type": "function"
    }
  ],
  "bytecode": "0x60806040523480156200001157600080fd5b5060405162002dea38038062002dea833981810160405281019062000037919062000246565b336000806101000a81548173ffffffffffffffffffffffffffffffffffffffff021916908373ffffffffffffffffffffffffffffffffffffffff1602179055508060019081620000889190620004e2565b5060006002819055506000600360006101000a81548160ff02191690831515021790555050620005c9565b6000604051905090565b600080fd5b600080fd5b600080fd5b600080fd5b6000601f19601f8301169050919050565b7f4e487b7100000000000000000000000000000000000000000000000000000000600052604160045260246000fd5b6200011c82620000d1565b810181811067ffffffffffffffff821117156200013e576200013d620000e2565b5b80604052505050565b600062000153620000b3565b905062000161828262000111565b919050565b600067ffffffffffffffff821115620001845762000183620000e2565b5b6200018f82620000d1565b9050602081019050919050565b60005b83811015620001bc5780820151818401526020810190506200019f565b60008484015250505050565b6000620001df620001d98462000166565b62000147565b905082815260208101848484011115620001fe57620001fd620000cc565b5b6200020b8482856200019c565b509392505050565b600082601f8301126200022b576200022a620000c7565b5b81516200023d848260208601620001c8565b91505092915050565b6000602082840312156200025f576200025e620000bd565b5b600082015167ffffffffffffffff81111562000280576200027f620000c2565b5b6200028e8482850162000213565b91505092915050565b600081519050919050565b7f4e487b7100000000000000000000000000000000000000000000000000000000600052602260045260246000fd5b60006002820490506001821680620002ea57607f821691505b6020821081036200030057620002ff620002a2565b5b50919050565b60008190508160005260206000209050919050565b60006020601f8301049050919050565b600082821b905092915050565b6000600883026200036a7fffffffffffffffffffffffffffffffffffffffffffffffffffffffffffffffff826200032b565b6200037686836200032b565b95508019841693508086168417925050509392505050565b6000819050919050565b6000819050919050565b6000620003c3620003bd620003b7846200038e565b62000398565b6200038e565b9050919050565b6000819050919050565b620003df83620003a2565b620003f7620003ee82620003ca565b84845462000338565b825550505050565b600090565b6200040e620003ff565b6200041b818484620003d4565b505050565b5b8181101562000443576200043760008262000404565b60018101905062000421565b5050565b601f82111562000492576200045c8162000306565b62000467846200031b565b8101602085101562000477578190505b6200048f62000486856200031b565b83018262000420565b50505b505050565b600082821c905092915050565b6000620004b76000198460080262000497565b1980831691505092915050565b6000620004d28383620004a4565b9150826002028217905092915050565b620004ed8262000297565b67ffffffffffffffff811115620005095762000508620000e2565b5b620005158254620002d1565b6200052282828562000447565b600060209050601f8311600181146200055a576000841562000545578287015190505b620005518582620004c4565b865550620005c1565b601f1984166200056a8662000306565b60005b8281101562000594578489015182556001820191506020850194506020810190506200056d565b86831015620005b45784890151620005b0601f891682620004a4565b8355505b6001600288020188555050505b505050505050565b61281180620005d96000396000f3fe608060405234801561001057600080fd5b50600436106100f55760003560e01c8063b13c744b11610097578063f1cea4c711610066578063f1cea4c714610267578063f5b0834614610285578063f851a440146102a1578063fab2f86b146102bf576100f5565b8063b13c744b146101db578063cf52a7b21461020f578063ed7a4e0b1461022b578063efd5297c14610249576100f5565b80633c71a6d5116100d35780633c71a6d5146101535780638043c9c01461016f5780638ab66a901461018d5780638e7ea5b2146101bd576100f5565b806303b4caed146100fa57806319f41a401461012b5780631ec6b60a14610149575b600080fd5b610114600480360381019061010f9190611631565b6102c9565b604051610122929190611679565b60405180910390f35b610133610307565b60405161014091906116a2565b60405180910390f35b61015161031e565b005b61016d60048036038101906101689190611839565b6103fe565b005b610177610750565b6040516101849190611927565b60405180910390f35b6101a760048036038101906101a29190611631565b6107de565b6040516101b49190611958565b60405180910390f35b6101c56107f6565b6040516101d29190611a60565b60405180910390f35b6101f560048036038101906101f09190611a82565b610a36565b604051610206959493929190611abe565b60405180910390f35b61022960048036038101906102249190611631565b610b31565b005b610233610e40565b6040516102409190611b18565b60405180910390f35b610251610e66565b60405161025e9190611c6b565b60405180910390f35b61026f610fdc565b60405161027c9190611958565b60405180910390f35b61029f600480360381019061029a9190611631565b610fe2565b005b6102a9611474565b6040516102b69190611b18565b60405180910390f35b6102c7611498565b005b60066020528060005260406000206000915090508060000160009054906101000a900460ff16908060000160019054906101000a900460ff16905082565b6000600360009054906101000a900460ff16905090565b3373ffffffffffffffffffffffffffffffffffffffff1660008054906101000a900473ffffffffffffffffffffffffffffffffffffffff1673ffffffffffffffffffffffffffffffffffffffff16146103ac576040517f08c379a00000000000000000000000000000000000000000000000000000000081526004016103a390611cff565b60405180910390fd5b6001600360006101000a81548160ff0219169083151502179055507f166b96a382dc3abc86ba052ca9c020cfd7022d2d3059e868918a3d20779e41cc6040516103f490611d6b565b60405180910390a1565b3373ffffffffffffffffffffffffffffffffffffffff1660008054906101000a900473ffffffffffffffffffffffffffffffffffffffff1673ffffffffffffffffffffffffffffffffffffffff161461048c576040517f08c379a000000000000000000000000000000000000000000000000000000000815260040161048390611cff565b60405180910390fd5b60008054906101000a900473ffffffffffffffffffffffffffffffffffffffff1673ffffffffffffffffffffffffffffffffffffffff168173ffffffffffffffffffffffffffffffffffffffff160361051a576040517f08c379a000000000000000000000000000000000000000000000000000000000815260040161051190611dfd565b60405180910390fd5b6000600460008373ffffffffffffffffffffffffffffffffffffffff1673ffffffffffffffffffffffffffffffffffffffff168152602001908152602001600020541461059c576040517f08c379a000000000000000000000000000000000000000000000000000000000815260040161059390611e69565b60405180910390fd5b60006040518060a001604052808581526020018481526020016001151581526020018373ffffffffffffffffffffffffffffffffffffffff1681526020016000815250905060006005805490500361060d576005600181600181540180825580915050039060005260206000209050505b600580549050600460008473ffffffffffffffffffffffffffffffffffffffff1673ffffffffffffffffffffffffffffffffffffffff16815260200190815260200160002081905550600581908060018154018082558091505060019003906000526020600020906004020160009091909190915060008201518160000190816106979190612095565b506020820151816001015560408201518160020160006101000a81548160ff02191690831515021790555060608201518160020160016101000a81548173ffffffffffffffffffffffffffffffffffffffff021916908373ffffffffffffffffffffffffffffffffffffffff1602179055506080820151816003015550507f166b96a382dc3abc86ba052ca9c020cfd7022d2d3059e868918a3d20779e41cc604051610742906121d9565b60405180910390a150505050565b6001805461075d90611eb8565b80601f016020809104026020016040519081016040528092919081815260200182805461078990611eb8565b80156107d65780601f106107ab576101008083540402835291602001916107d6565b820191906000526020600020905b8154815290600101906020018083116107b957829003601f168201915b505050505081565b60046020528060005260406000206000915090505481565b6107fe611578565b3373ffffffffffffffffffffffffffffffffffffffff1660008054906101000a900473ffffffffffffffffffffffffffffffffffffffff1673ffffffffffffffffffffffffffffffffffffffff161461088c576040517f08c379a000000000000000000000000000000000000000000000000000000000815260040161088390611cff565b60405180910390fd5b600560046000600360019054906101000a900473ffffffffffffffffffffffffffffffffffffffff1673ffffffffffffffffffffffffffffffffffffffff1673ffffffffffffffffffffffffffffffffffffffff1681526020019081526020016000205481548110610901576109006121f9565b5b90600052602060002090600402016040518060a001604052908160008201805461092a90611eb8565b80601f016020809104026020016040519081016040528092919081815260200182805461095690611eb8565b80156109a35780601f10610978576101008083540402835291602001916109a3565b820191906000526020600020905b81548152906001019060200180831161098657829003601f168201915b50505050508152602001600182015481526020016002820160009054906101000a900460ff161515151581526020016002820160019054906101000a900473ffffffffffffffffffffffffffffffffffffffff1673ffffffffffffffffffffffffffffffffffffffff1673ffffffffffffffffffffffffffffffffffffffff168152602001600382015481525050905090565b60058181548110610a4657600080fd5b9060005260206000209060040201600091509050806000018054610a6990611eb8565b80601f0160208091040260200160405190810160405280929190818152602001828054610a9590611eb8565b8015610ae25780601f10610ab757610100808354040283529160200191610ae2565b820191906000526020600020905b815481529060010190602001808311610ac557829003601f168201915b5050505050908060010154908060020160009054906101000a900460ff16908060020160019054906101000a900473ffffffffffffffffffffffffffffffffffffffff16908060030154905085565b3373ffffffffffffffffffffffffffffffffffffffff1660008054906101000a900473ffffffffffffffffffffffffffffffffffffffff1673ffffffffffffffffffffffffffffffffffffffff1614610bbf576040517f08c379a0000000000000000000000000000000000000000000000000000000008152600401610bb690611cff565b60405180910390fd5b60008054906101000a900473ffffffffffffffffffffffffffffffffffffffff1673ffffffffffffffffffffffffffffffffffffffff168173ffffffffffffffffffffffffffffffffffffffff1603610c4d576040517f08c379a0000000000000000000000000000000000000000000000000000000008152600401610c4490612274565b60405180910390fd5b60001515600660008373ffffffffffffffffffffffffffffffffffffffff1673ffffffffffffffffffffffffffffffffffffffff16815260200190815260200160002060000160009054906101000a900460ff16151514610ce3576040517f08c379a0000000000000000000000000000000000000000000000000000000008152600401610cda906122e0565b60405180910390fd5b6000600460008373ffffffffffffffffffffffffffffffffffffffff1673ffffffffffffffffffffffffffffffffffffffff1681526020019081526020016000205414610d65576040517f08c379a0000000000000000000000000000000000000000000000000000000008152600401610d5c90612372565b60405180910390fd5b6000604051806040016040528060011515815260200160001515815250905080600660008473ffffffffffffffffffffffffffffffffffffffff1673ffffffffffffffffffffffffffffffffffffffff16815260200190815260200160002060008201518160000160006101000a81548160ff02191690831515021790555060208201518160000160016101000a81548160ff0219169083151502179055509050507f166b96a382dc3abc86ba052ca9c020cfd7022d2d3059e868918a3d20779e41cc604051610e3490612404565b60405180910390a15050565b600360019054906101000a900473ffffffffffffffffffffffffffffffffffffffff1681565b60606005805480602002602001604051908101604052809291908181526020016000905b82821015610fd357838290600052602060002090600402016040518060a0016040529081600082018054610ebd90611eb8565b80601f0160208091040260200160405190810160405280929190818152602001828054610ee990611eb8565b8015610f365780601f10610f0b57610100808354040283529160200191610f36565b820191906000526020600020905b815481529060010190602001808311610f1957829003601f168201915b50505050508152602001600182015481526020016002820160009054906101000a900460ff161515151581526020016002820160019054906101000a900473ffffffffffffffffffffffffffffffffffffffff1673ffffffffffffffffffffffffffffffffffffffff1673ffffffffffffffffffffffffffffffffffffffff16815260200160038201548152505081526020019060010190610e8a565b50505050905090565b60025481565b60011515600360009054906101000a900460ff16151514611038576040517f08c379a000000000000000000000000000000000000000000000000000000000815260040161102f90612496565b60405180910390fd5b60008054906101000a900473ffffffffffffffffffffffffffffffffffffffff1673ffffffffffffffffffffffffffffffffffffffff163373ffffffffffffffffffffffffffffffffffffffff16036110c6576040517f08c379a00000000000000000000000000000000000000000000000000000000081526004016110bd90612502565b60405180910390fd5b60011515600660003373ffffffffffffffffffffffffffffffffffffffff1673ffffffffffffffffffffffffffffffffffffffff16815260200190815260200160002060000160009054906101000a900460ff1615151461115c576040517f08c379a00000000000000000000000000000000000000000000000000000000081526004016111539061256e565b60405180910390fd5b60001515600660003373ffffffffffffffffffffffffffffffffffffffff1673ffffffffffffffffffffffffffffffffffffffff16815260200190815260200160002060000160019054906101000a900460ff161515146111f2576040517f08c379a00000000000000000000000000000000000000000000000000000000081526004016111e9906125da565b60405180910390fd5b600115156005600460008473ffffffffffffffffffffffffffffffffffffffff1673ffffffffffffffffffffffffffffffffffffffff1681526020019081526020016000205481548110611249576112486121f9565b5b906000526020600020906004020160020160009054906101000a900460ff161515146112aa576040517f08c379a00000000000000000000000000000000000000000000000000000000081526004016112a190612646565b60405180910390fd5b6005600460008373ffffffffffffffffffffffffffffffffffffffff1673ffffffffffffffffffffffffffffffffffffffff16815260200190815260200160002054815481106112fd576112fc6121f9565b5b9060005260206000209060040201600301600081548092919061131f90612695565b91905055506001600660003373ffffffffffffffffffffffffffffffffffffffff1673ffffffffffffffffffffffffffffffffffffffff16815260200190815260200160002060000160016101000a81548160ff02191690831515021790555060006005600460008473ffffffffffffffffffffffffffffffffffffffff1673ffffffffffffffffffffffffffffffffffffffff16815260200190815260200160002054815481106113d4576113d36121f9565b5b906000526020600020906004020160030154905080600254101561143b578060028190555081600360016101000a81548173ffffffffffffffffffffffffffffffffffffffff021916908373ffffffffffffffffffffffffffffffffffffffff1602179055505b7f166b96a382dc3abc86ba052ca9c020cfd7022d2d3059e868918a3d20779e41cc6040516114689061274f565b60405180910390a15050565b60008054906101000a900473ffffffffffffffffffffffffffffffffffffffff1681565b3373ffffffffffffffffffffffffffffffffffffffff1660008054906101000a900473ffffffffffffffffffffffffffffffffffffffff1673ffffffffffffffffffffffffffffffffffffffff1614611526576040517f08c379a000000000000000000000000000000000000000000000000000000000815260040161151d90611cff565b60405180910390fd5b6000600360006101000a81548160ff0219169083151502179055507f166b96a382dc3abc86ba052ca9c020cfd7022d2d3059e868918a3d20779e41cc60405161156e906127bb565b60405180910390a1565b6040518060a001604052806060815260200160008152602001600015158152602001600073ffffffffffffffffffffffffffffffffffffffff168152602001600081525090565b6000604051905090565b600080fd5b600080fd5b600073ffffffffffffffffffffffffffffffffffffffff82169050919050565b60006115fe826115d3565b9050919050565b61160e816115f3565b811461161957600080fd5b50565b60008135905061162b81611605565b92915050565b600060208284031215611647576116466115c9565b5b60006116558482850161161c565b91505092915050565b60008115159050919050565b6116738161165e565b82525050565b600060408201905061168e600083018561166a565b61169b602083018461166a565b9392505050565b60006020820190506116b7600083018461166a565b92915050565b600080fd5b600080fd5b6000601f19601f8301169050919050565b7f4e487b7100000000000000000000000000000000000000000000000000000000600052604160045260246000fd5b611710826116c7565b810181811067ffffffffffffffff8211171561172f5761172e6116d8565b5b80604052505050565b60006117426115bf565b905061174e8282611707565b919050565b600067ffffffffffffffff82111561176e5761176d6116d8565b5b611777826116c7565b9050602081019050919050565b82818337600083830152505050565b60006117a66117a184611753565b611738565b9050828152602081018484840111156117c2576117c16116c2565b5b6117cd848285611784565b509392505050565b600082601f8301126117ea576117e96116bd565b5b81356117fa848260208601611793565b91505092915050565b6000819050919050565b61181681611803565b811461182157600080fd5b50565b6000813590506118338161180d565b92915050565b600080600060608486031215611852576118516115c9565b5b600084013567ffffffffffffffff8111156118705761186f6115ce565b5b61187c868287016117d5565b935050602061188d86828701611824565b925050604061189e8682870161161c565b9150509250925092565b600081519050919050565b600082825260208201905092915050565b60005b838110156118e25780820151818401526020810190506118c7565b60008484015250505050565b60006118f9826118a8565b61190381856118b3565b93506119138185602086016118c4565b61191c816116c7565b840191505092915050565b6000602082019050818103600083015261194181846118ee565b905092915050565b61195281611803565b82525050565b600060208201905061196d6000830184611949565b92915050565b600082825260208201905092915050565b600061198f826118a8565b6119998185611973565b93506119a98185602086016118c4565b6119b2816116c7565b840191505092915050565b6119c681611803565b82525050565b6119d58161165e565b82525050565b6119e4816115f3565b82525050565b600060a0830160008301518482036000860152611a078282611984565b9150506020830151611a1c60208601826119bd565b506040830151611a2f60408601826119cc565b506060830151611a4260608601826119db565b506080830151611a5560808601826119bd565b508091505092915050565b60006020820190508181036000830152611a7a81846119ea565b905092915050565b600060208284031215611a9857611a976115c9565b5b6000611aa684828501611824565b91505092915050565b611ab8816115f3565b82525050565b600060a0820190508181036000830152611ad881886118ee565b9050611ae76020830187611949565b611af4604083018661166a565b611b016060830185611aaf565b611b0e6080830184611949565b9695505050505050565b6000602082019050611b2d6000830184611aaf565b92915050565b600081519050919050565b600082825260208201905092915050565b6000819050602082019050919050565b600060a0830160008301518482036000860152611b7c8282611984565b9150506020830151611b9160208601826119bd565b506040830151611ba460408601826119cc565b506060830151611bb760608601826119db565b506080830151611bca60808601826119bd565b508091505092915050565b6000611be18383611b5f565b905092915050565b6000602082019050919050565b6000611c0182611b33565b611c0b8185611b3e565b935083602082028501611c1d85611b4f565b8060005b85811015611c595784840389528151611c3a8582611bd5565b9450611c4583611be9565b925060208a01995050600181019050611c21565b50829750879550505050505092915050565b60006020820190508181036000830152611c858184611bf6565b905092915050565b7f4f6e6c792061646d696e2061726520617574686f72697a656420746f2061636360008201527f65737320746869732066756e6374696f6e2e0000000000000000000000000000602082015250565b6000611ce96032836118b3565b9150611cf482611c8d565b604082019050919050565b60006020820190508181036000830152611d1881611cdc565b9050919050565b7f566f74696e672069732073746172746564212100000000000000000000000000600082015250565b6000611d556013836118b3565b9150611d6082611d1f565b602082019050919050565b60006020820190508181036000830152611d8481611d48565b9050919050565b7f41646d696e2063616e206e6f7420706172746963697061746520696e20766f7460008201527f696e672121000000000000000000000000000000000000000000000000000000602082015250565b6000611de76025836118b3565b9150611df282611d8b565b604082019050919050565b60006020820190508181036000830152611e1681611dda565b9050919050565b7f43616e64696461746520697320616c7265616479207265676973746572656400600082015250565b6000611e53601f836118b3565b9150611e5e82611e1d565b602082019050919050565b60006020820190508181036000830152611e8281611e46565b9050919050565b7f4e487b7100000000000000000000000000000000000000000000000000000000600052602260045260246000fd5b60006002820490506001821680611ed057607f821691505b602082108103611ee357611ee2611e89565b5b50919050565b60008190508160005260206000209050919050565b60006020601f8301049050919050565b600082821b905092915050565b600060088302611f4b7fffffffffffffffffffffffffffffffffffffffffffffffffffffffffffffffff82611f0e565b611f558683611f0e565b95508019841693508086168417925050509392505050565b6000819050919050565b6000611f92611f8d611f8884611803565b611f6d565b611803565b9050919050565b6000819050919050565b611fac83611f77565b611fc0611fb882611f99565b848454611f1b565b825550505050565b600090565b611fd5611fc8565b611fe0818484611fa3565b505050565b5b8181101561200457611ff9600082611fcd565b600181019050611fe6565b5050565b601f8211156120495761201a81611ee9565b61202384611efe565b81016020851015612032578190505b61204661203e85611efe565b830182611fe5565b50505b505050565b600082821c905092915050565b600061206c6000198460080261204e565b1980831691505092915050565b6000612085838361205b565b9150826002028217905092915050565b61209e826118a8565b67ffffffffffffffff8111156120b7576120b66116d8565b5b6120c18254611eb8565b6120cc828285612008565b600060209050601f8311600181146120ff57600084156120ed578287015190505b6120f78582612079565b86555061215f565b601f19841661210d86611ee9565b60005b8281101561213557848901518255600182019150602085019450602081019050612110565b86831015612152578489015161214e601f89168261205b565b8355505b6001600288020188555050505b505050505050565b7f43616e646964617465206973207375636365737366756c6c792072656769737460008201527f6572656421210000000000000000000000000000000000000000000000000000602082015250565b60006121c36026836118b3565b91506121ce82612167565b604082019050919050565b600060208201905081810360008301526121f2816121b6565b9050919050565b7f4e487b7100000000000000000000000000000000000000000000000000000000600052603260045260246000fd5b7f41646d696e2063616e206e6f742062652077686974654c697374656421210000600082015250565b600061225e601e836118b3565b915061226982612228565b602082019050919050565b6000602082019050818103600083015261228d81612251565b9050919050565b7f566f74657220697320616c726561647920726567697374657265642121000000600082015250565b60006122ca601d836118b3565b91506122d582612294565b602082019050919050565b600060208201905081810360008301526122f9816122bd565b9050919050565b7f4164647265737320697320616c7265616479207265676973746572656420617360008201527f2063616e64696461746500000000000000000000000000000000000000000000602082015250565b600061235c602a836118b3565b915061236782612300565b604082019050919050565b6000602082019050818103600083015261238b8161234f565b9050919050565b7f566f746572206973207375636365737366756c6c79207265676973746572656460008201527f2121000000000000000000000000000000000000000000000000000000000000602082015250565b60006123ee6022836118b3565b91506123f982612392565b604082019050919050565b6000602082019050818103600083015261241d816123e1565b9050919050565b7f566f74696e67206973206e6f74207374617274656420796574206f7220656e6460008201527f6564212100000000000000000000000000000000000000000000000000000000602082015250565b60006124806024836118b3565b915061248b82612424565b604082019050919050565b600060208201905081810360008301526124af81612473565b9050919050565b7f41646d696e2063616e206e6f7420766f74652121000000000000000000000000600082015250565b60006124ec6014836118b3565b91506124f7826124b6565b602082019050919050565b6000602082019050818103600083015261251b816124df565b9050919050565b7f566f746572206973206e6f742072656769737465726564212100000000000000600082015250565b60006125586019836118b3565b915061256382612522565b602082019050919050565b600060208201905081810360008301526125878161254b565b9050919050565b7f416c726561647920766f74656421210000000000000000000000000000000000600082015250565b60006125c4600f836118b3565b91506125cf8261258e565b602082019050919050565b600060208201905081810360008301526125f3816125b7565b9050919050565b7f43616e646964617465206e6f7420726567697374657265640000000000000000600082015250565b60006126306018836118b3565b915061263b826125fa565b602082019050919050565b6000602082019050818103600083015261265f81612623565b9050919050565b7f4e487b7100000000000000000000000000000000000000000000000000000000600052601160045260246000fd5b60006126a082611803565b91507fffffffffffffffffffffffffffffffffffffffffffffffffffffffffffffffff82036126d2576126d1612666565b5b600182019050919050565b7f436f6e67726174732c20596f752068617665207375636365737366756c6c792060008201527f566f746564202121000000000000000000000000000000000000000000000000602082015250565b60006127396028836118b3565b9150612744826126dd565b604082019050919050565b600060208201905081810360008301526127688161272c565b9050919050565b7f566f74696e672073746f70656421210000000000000000000000000000000000600082015250565b60006127a5600f836118b3565b91506127b08261276f565b602082019050919050565b600060208201905081810360008301526127d481612798565b905091905056fea26469706673582212208dc9d21f49acc38818015070191468e4d620e9d3fd4d5e5f528dd6f3a98c0b9964736f6c63430008110033",
  "linkReferences": {},
  "deployedLinkReferences": {}
}